{
  "_format": "hh-sol-artifact-1",
  "contractName": "WavePortal",
  "sourceName": "contracts/WavePortal.sol",
  "abi": [
    {
      "inputs": [],
      "stateMutability": "payable",
      "type": "constructor"
    },
    {
      "anonymous": false,
      "inputs": [
        {
          "indexed": true,
          "internalType": "address",
          "name": "from",
          "type": "address"
        },
        {
          "indexed": false,
          "internalType": "uint256",
          "name": "timestamp",
          "type": "uint256"
        },
        {
          "indexed": false,
          "internalType": "string",
          "name": "message",
          "type": "string"
        }
      ],
      "name": "NewWave",
      "type": "event"
    },
    {
      "anonymous": false,
      "inputs": [
        {
          "indexed": true,
          "internalType": "address",
          "name": "previousOwner",
          "type": "address"
        },
        {
          "indexed": true,
          "internalType": "address",
          "name": "newOwner",
          "type": "address"
        }
      ],
      "name": "OwnershipTransferred",
      "type": "event"
    },
    {
      "inputs": [],
      "name": "getAllWaves",
      "outputs": [
        {
          "components": [
            {
              "internalType": "address",
              "name": "waver",
              "type": "address"
            },
            {
              "internalType": "string",
              "name": "message",
              "type": "string"
            },
            {
              "internalType": "uint256",
              "name": "timstamp",
              "type": "uint256"
            }
          ],
          "internalType": "struct WavePortal.Wave[]",
          "name": "",
          "type": "tuple[]"
        }
      ],
      "stateMutability": "view",
      "type": "function"
    },
    {
      "inputs": [],
      "name": "getTotalWaves",
      "outputs": [
        {
          "internalType": "uint256",
          "name": "",
          "type": "uint256"
        }
      ],
      "stateMutability": "view",
      "type": "function"
    },
    {
      "inputs": [
        {
          "internalType": "address",
          "name": "",
          "type": "address"
        }
      ],
      "name": "lastWavedAt",
      "outputs": [
        {
          "internalType": "uint256",
          "name": "",
          "type": "uint256"
        }
      ],
      "stateMutability": "view",
      "type": "function"
    },
    {
      "inputs": [],
      "name": "owner",
      "outputs": [
        {
          "internalType": "address",
          "name": "",
          "type": "address"
        }
      ],
      "stateMutability": "view",
      "type": "function"
    },
    {
      "inputs": [],
      "name": "renounceOwnership",
      "outputs": [],
      "stateMutability": "nonpayable",
      "type": "function"
    },
    {
      "inputs": [
        {
          "internalType": "address",
          "name": "newOwner",
          "type": "address"
        }
      ],
      "name": "transferOwnership",
      "outputs": [],
      "stateMutability": "nonpayable",
      "type": "function"
    },
    {
      "inputs": [
        {
          "internalType": "string",
          "name": "_message",
          "type": "string"
        }
      ],
      "name": "wave",
      "outputs": [],
      "stateMutability": "payable",
      "type": "function"
    },
    {
      "inputs": [],
      "name": "withdraw",
      "outputs": [],
      "stateMutability": "payable",
      "type": "function"
    }
  ],
  "bytecode": "0x608060405262000024620000186200009760201b60201c565b6200009f60201b60201c565b6200006f6040518060400160405280601881526020017f77652068617665206265656e20636f6e737472756374656400000000000000008152506200016360201b62000c4f1760201c565b606444426200007f9190620002b0565b6200008b91906200034d565b600281905550620003f4565b600033905090565b60008060009054906101000a900473ffffffffffffffffffffffffffffffffffffffff169050816000806101000a81548173ffffffffffffffffffffffffffffffffffffffff021916908373ffffffffffffffffffffffffffffffffffffffff1602179055508173ffffffffffffffffffffffffffffffffffffffff168173ffffffffffffffffffffffffffffffffffffffff167f8be0079c531659141344cd1fd0a4f28419497f9722a3daafe3b4186f6b6457e060405160405180910390a35050565b62000203816040516024016200017a919062000270565b6040516020818303038152906040527f41304fac000000000000000000000000000000000000000000000000000000007bffffffffffffffffffffffffffffffffffffffffffffffffffffffff19166020820180517bffffffffffffffffffffffffffffffffffffffffffffffffffffffff83818316178352505050506200020660201b60201c565b50565b60008151905060006a636f6e736f6c652e6c6f679050602083016000808483855afa5050505050565b60006200023c8262000294565b6200024881856200029f565b93506200025a81856020860162000317565b6200026581620003e3565b840191505092915050565b600060208201905081810360008301526200028c81846200022f565b905092915050565b600081519050919050565b600082825260208201905092915050565b6000620002bd826200030d565b9150620002ca836200030d565b9250827fffffffffffffffffffffffffffffffffffffffffffffffffffffffffffffffff0382111562000302576200030162000385565b5b828201905092915050565b6000819050919050565b60005b83811015620003375780820151818401526020810190506200031a565b8381111562000347576000848401525b50505050565b60006200035a826200030d565b915062000367836200030d565b9250826200037a5762000379620003b4565b5b828206905092915050565b7f4e487b7100000000000000000000000000000000000000000000000000000000600052601160045260246000fd5b7f4e487b7100000000000000000000000000000000000000000000000000000000600052601260045260246000fd5b6000601f19601f8301169050919050565b611b9080620004046000396000f3fe60806040526004361061007b5760003560e01c80639a2cdc081161004e5780639a2cdc08146100e8578063a42a466314610113578063bd43a90814610150578063f2fde38b1461017b5761007b565b80633ccfd60b14610080578063449d46c01461008a578063715018a6146100a65780638da5cb5b146100bd575b600080fd5b6100886101a4565b005b6100a4600480360381019061009f91906110fd565b610318565b005b3480156100b257600080fd5b506100bb6108f2565b005b3480156100c957600080fd5b506100d261097a565b6040516100df9190611415565b60405180910390f35b3480156100f457600080fd5b506100fd6109a3565b60405161010a9190611619565b60405180910390f35b34801561011f57600080fd5b5061013a600480360381019061013591906110d4565b6109ee565b6040516101479190611619565b60405180910390f35b34801561015c57600080fd5b50610165610a06565b6040516101729190611430565b60405180910390f35b34801561018757600080fd5b506101a2600480360381019061019d91906110d4565b610b57565b005b6101ac610ce8565b73ffffffffffffffffffffffffffffffffffffffff166101ca61097a565b73ffffffffffffffffffffffffffffffffffffffff1614610220576040517f08c379a0000000000000000000000000000000000000000000000000000000008152600401610217906115b9565b60405180910390fd5b600047905060008111610268576040517f08c379a000000000000000000000000000000000000000000000000000000000815260040161025f90611599565b60405180910390fd5b60003373ffffffffffffffffffffffffffffffffffffffff168260405161028e90611400565b60006040518083038185875af1925050503d80600081146102cb576040519150601f19603f3d011682016040523d82523d6000602084013e6102d0565b606091505b5050905080610314576040517f08c379a000000000000000000000000000000000000000000000000000000000815260040161030b906115f9565b60405180910390fd5b5050565b600065b5e620f48000905042601e600460003373ffffffffffffffffffffffffffffffffffffffff1673ffffffffffffffffffffffffffffffffffffffff16815260200190815260200160002054610370919061172b565b106103b0576040517f08c379a00000000000000000000000000000000000000000000000000000000081526004016103a790611579565b60405180910390fd5b803410156103f3576040517f08c379a00000000000000000000000000000000000000000000000000000000081526004016103ea90611519565b60405180910390fd5b42600460003373ffffffffffffffffffffffffffffffffffffffff1673ffffffffffffffffffffffffffffffffffffffff168152602001908152602001600020819055506001806000828254610449919061172b565b925050819055506104906040518060400160405280601681526020017f257320776176656420772f206d657373616765202573000000000000000000008152503384610cf0565b600360405180606001604052803373ffffffffffffffffffffffffffffffffffffffff16815260200184815260200142815250908060018154018082558091505060019003906000526020600020906003020160009091909190915060008201518160000160006101000a81548173ffffffffffffffffffffffffffffffffffffffff021916908373ffffffffffffffffffffffffffffffffffffffff160217905550602082015181600101908051906020019061054f929190610fb4565b506040820151816002015550506064600254424461056d919061172b565b610577919061172b565b6105819190611862565b6002819055506105c86040518060400160405280601681526020017f52616e646f6d20232067656e6572617465643a20256400000000000000000000815250600254610d8f565b600a60025411610713576106116040518060400160405280600d81526020017f257320677265617420776f6e210000000000000000000000000000000000000081525033610e2b565b600066038d7ea4c68000905047811115610660576040517f08c379a000000000000000000000000000000000000000000000000000000000815260040161065790611559565b60405180910390fd5b60003373ffffffffffffffffffffffffffffffffffffffff168260405161068690611400565b60006040518083038185875af1925050503d80600081146106c3576040519150601f19603f3d011682016040523d82523d6000602084013e6106c8565b606091505b505090508061070c576040517f08c379a0000000000000000000000000000000000000000000000000000000008152600401610703906115d9565b60405180910390fd5b505061089e565b60326002541161085d5761075c6040518060400160405280600781526020017f257320776f6e210000000000000000000000000000000000000000000000000081525033610e2b565b6000655af3107a40009050478111156107aa576040517f08c379a00000000000000000000000000000000000000000000000000000000081526004016107a190611559565b60405180910390fd5b60003373ffffffffffffffffffffffffffffffffffffffff16826040516107d090611400565b60006040518083038185875af1925050503d806000811461080d576040519150601f19603f3d011682016040523d82523d6000602084013e610812565b606091505b5050905080610856576040517f08c379a000000000000000000000000000000000000000000000000000000000815260040161084d906115d9565b60405180910390fd5b505061089d565b61089c6040518060400160405280600f81526020017f257320646964206e6f742077696e2e000000000000000000000000000000000081525033610e2b565b5b5b3373ffffffffffffffffffffffffffffffffffffffff167f5f7e16dc676677766a70e9c5628aa6c54ddb8b6e5188e2ae1e1f17f1ffbea71642846040516108e6929190611634565b60405180910390a25050565b6108fa610ce8565b73ffffffffffffffffffffffffffffffffffffffff1661091861097a565b73ffffffffffffffffffffffffffffffffffffffff161461096e576040517f08c379a0000000000000000000000000000000000000000000000000000000008152600401610965906115b9565b60405180910390fd5b6109786000610ec7565b565b60008060009054906101000a900473ffffffffffffffffffffffffffffffffffffffff16905090565b60006109e66040518060400160405280601781526020017f5765206861766520256420746f74616c20776176657321000000000000000000815250600154610d8f565b600154905090565b60046020528060005260406000206000915090505481565b60606003805480602002602001604051908101604052809291908181526020016000905b82821015610b4e57838290600052602060002090600302016040518060600160405290816000820160009054906101000a900473ffffffffffffffffffffffffffffffffffffffff1673ffffffffffffffffffffffffffffffffffffffff1673ffffffffffffffffffffffffffffffffffffffff168152602001600182018054610ab3906117ff565b80601f0160208091040260200160405190810160405280929190818152602001828054610adf906117ff565b8015610b2c5780601f10610b0157610100808354040283529160200191610b2c565b820191906000526020600020905b815481529060010190602001808311610b0f57829003601f168201915b5050505050815260200160028201548152505081526020019060010190610a2a565b50505050905090565b610b5f610ce8565b73ffffffffffffffffffffffffffffffffffffffff16610b7d61097a565b73ffffffffffffffffffffffffffffffffffffffff1614610bd3576040517f08c379a0000000000000000000000000000000000000000000000000000000008152600401610bca906115b9565b60405180910390fd5b600073ffffffffffffffffffffffffffffffffffffffff168173ffffffffffffffffffffffffffffffffffffffff161415610c43576040517f08c379a0000000000000000000000000000000000000000000000000000000008152600401610c3a90611539565b60405180910390fd5b610c4c81610ec7565b50565b610ce581604051602401610c639190611452565b6040516020818303038152906040527f41304fac000000000000000000000000000000000000000000000000000000007bffffffffffffffffffffffffffffffffffffffffffffffffffffffff19166020820180517bffffffffffffffffffffffffffffffffffffffffffffffffffffffff8381831617835250505050610f8b565b50565b600033905090565b610d8a838383604051602401610d08939291906114a4565b6040516020818303038152906040527fe0e9ad4f000000000000000000000000000000000000000000000000000000007bffffffffffffffffffffffffffffffffffffffffffffffffffffffff19166020820180517bffffffffffffffffffffffffffffffffffffffffffffffffffffffff8381831617835250505050610f8b565b505050565b610e278282604051602401610da59291906114e9565b6040516020818303038152906040527f9710a9d0000000000000000000000000000000000000000000000000000000007bffffffffffffffffffffffffffffffffffffffffffffffffffffffff19166020820180517bffffffffffffffffffffffffffffffffffffffffffffffffffffffff8381831617835250505050610f8b565b5050565b610ec38282604051602401610e41929190611474565b6040516020818303038152906040527f319af333000000000000000000000000000000000000000000000000000000007bffffffffffffffffffffffffffffffffffffffffffffffffffffffff19166020820180517bffffffffffffffffffffffffffffffffffffffffffffffffffffffff8381831617835250505050610f8b565b5050565b60008060009054906101000a900473ffffffffffffffffffffffffffffffffffffffff169050816000806101000a81548173ffffffffffffffffffffffffffffffffffffffff021916908373ffffffffffffffffffffffffffffffffffffffff1602179055508173ffffffffffffffffffffffffffffffffffffffff168173ffffffffffffffffffffffffffffffffffffffff167f8be0079c531659141344cd1fd0a4f28419497f9722a3daafe3b4186f6b6457e060405160405180910390a35050565b60008151905060006a636f6e736f6c652e6c6f679050602083016000808483855afa5050505050565b828054610fc0906117ff565b90600052602060002090601f016020900481019282610fe25760008555611029565b82601f10610ffb57805160ff1916838001178555611029565b82800160010185558215611029579182015b8281111561102857825182559160200191906001019061100d565b5b509050611036919061103a565b5090565b5b8082111561105357600081600090555060010161103b565b5090565b600061106a61106584611689565b611664565b90508281526020810184848401111561108257600080fd5b61108d8482856117bd565b509392505050565b6000813590506110a481611b43565b92915050565b600082601f8301126110bb57600080fd5b81356110cb848260208601611057565b91505092915050565b6000602082840312156110e657600080fd5b60006110f484828501611095565b91505092915050565b60006020828403121561110f57600080fd5b600082013567ffffffffffffffff81111561112957600080fd5b611135848285016110aa565b91505092915050565b600061114a8383611392565b905092915050565b61115b81611781565b82525050565b61116a81611781565b82525050565b600061117b826116ca565b61118581856116ed565b935083602082028501611197856116ba565b8060005b858110156111d357848403895281516111b4858261113e565b94506111bf836116e0565b925060208a0199505060018101905061119b565b50829750879550505050505092915050565b60006111f0826116d5565b6111fa8185611709565b935061120a8185602086016117cc565b6112138161194f565b840191505092915050565b6000611229826116d5565b611233818561171a565b93506112438185602086016117cc565b61124c8161194f565b840191505092915050565b600061126460268361171a565b915061126f82611960565b604082019050919050565b600061128760268361171a565b9150611292826119af565b604082019050919050565b60006112aa60348361171a565b91506112b5826119fe565b604082019050919050565b60006112cd60088361171a565b91506112d882611a4d565b602082019050919050565b60006112f060198361171a565b91506112fb82611a76565b602082019050919050565b600061131360208361171a565b915061131e82611a9f565b602082019050919050565b600061133660268361171a565b915061134182611ac8565b604082019050919050565b60006113596000836116fe565b915061136482611b17565b600082019050919050565b600061137c60108361171a565b915061138782611b1a565b602082019050919050565b60006060830160008301516113aa6000860182611152565b50602083015184820360208601526113c282826111e5565b91505060408301516113d760408601826113e2565b508091505092915050565b6113eb816117b3565b82525050565b6113fa816117b3565b82525050565b600061140b8261134c565b9150819050919050565b600060208201905061142a6000830184611161565b92915050565b6000602082019050818103600083015261144a8184611170565b905092915050565b6000602082019050818103600083015261146c818461121e565b905092915050565b6000604082019050818103600083015261148e818561121e565b905061149d6020830184611161565b9392505050565b600060608201905081810360008301526114be818661121e565b90506114cd6020830185611161565b81810360408301526114df818461121e565b9050949350505050565b60006040820190508181036000830152611503818561121e565b905061151260208301846113f1565b9392505050565b6000602082019050818103600083015261153281611257565b9050919050565b600060208201905081810360008301526115528161127a565b9050919050565b600060208201905081810360008301526115728161129d565b9050919050565b60006020820190508181036000830152611592816112c0565b9050919050565b600060208201905081810360008301526115b2816112e3565b9050919050565b600060208201905081810360008301526115d281611306565b9050919050565b600060208201905081810360008301526115f281611329565b9050919050565b600060208201905081810360008301526116128161136f565b9050919050565b600060208201905061162e60008301846113f1565b92915050565b600060408201905061164960008301856113f1565b818103602083015261165b818461121e565b90509392505050565b600061166e61167f565b905061167a8282611831565b919050565b6000604051905090565b600067ffffffffffffffff8211156116a4576116a3611920565b5b6116ad8261194f565b9050602081019050919050565b6000819050602082019050919050565b600081519050919050565b600081519050919050565b6000602082019050919050565b600082825260208201905092915050565b600081905092915050565b600082825260208201905092915050565b600082825260208201905092915050565b6000611736826117b3565b9150611741836117b3565b9250827fffffffffffffffffffffffffffffffffffffffffffffffffffffffffffffffff0382111561177657611775611893565b5b828201905092915050565b600061178c82611793565b9050919050565b600073ffffffffffffffffffffffffffffffffffffffff82169050919050565b6000819050919050565b82818337600083830152505050565b60005b838110156117ea5780820151818401526020810190506117cf565b838111156117f9576000848401525b50505050565b6000600282049050600182168061181757607f821691505b6020821081141561182b5761182a6118f1565b5b50919050565b61183a8261194f565b810181811067ffffffffffffffff8211171561185957611858611920565b5b80604052505050565b600061186d826117b3565b9150611878836117b3565b925082611888576118876118c2565b5b828206905092915050565b7f4e487b7100000000000000000000000000000000000000000000000000000000600052601160045260246000fd5b7f4e487b7100000000000000000000000000000000000000000000000000000000600052601260045260246000fd5b7f4e487b7100000000000000000000000000000000000000000000000000000000600052602260045260246000fd5b7f4e487b7100000000000000000000000000000000000000000000000000000000600052604160045260246000fd5b6000601f19601f8301169050919050565b7f6e6f7420656e6f75676820657468657220746f207075726368617365206c6f7460008201527f746572792e200000000000000000000000000000000000000000000000000000602082015250565b7f4f776e61626c653a206e6577206f776e657220697320746865207a65726f206160008201527f6464726573730000000000000000000000000000000000000000000000000000602082015250565b7f547279696e6720746f207769746864726177206d6f7265206d6f6e657920746860008201527f616e2074686520636f6e7472616374206861732e000000000000000000000000602082015250565b7f5761697420333073000000000000000000000000000000000000000000000000600082015250565b7f4e6f206574686572206c65667420746f20776974686472617700000000000000600082015250565b7f4f776e61626c653a2063616c6c6572206973206e6f7420746865206f776e6572600082015250565b7f4661696c656420746f207769746864726177206d6f6e65792066726f6d20636f60008201527f6e74726163740000000000000000000000000000000000000000000000000000602082015250565b50565b7f5472616e73666572206661696c65642e00000000000000000000000000000000600082015250565b611b4c81611781565b8114611b5757600080fd5b5056fea2646970667358221220091e62407a510575e4850b64ce1edea0c2c7aa9958c43378e0ced216811b1b5c64736f6c63430008040033",
  "linkReferences": {},
  "deployedLinkReferences": {}
}